{
  "_format": "hh-sol-artifact-1",
  "contractName": "BracketGenerator",
  "sourceName": "contracts/BracketGenerator.sol",
  "abi": [
    {
      "inputs": [
        {
          "internalType": "string",
          "name": "name",
          "type": "string"
        },
        {
          "internalType": "string[]",
          "name": "teams",
          "type": "string[]"
        }
      ],
      "name": "createTournament",
      "outputs": [],
      "stateMutability": "nonpayable",
      "type": "function"
    },
    {
      "inputs": [
        {
          "internalType": "string",
          "name": "name",
          "type": "string"
        }
      ],
      "name": "getTournamentMatchups",
      "outputs": [
        {
          "components": [
            {
              "internalType": "uint256",
              "name": "id",
              "type": "uint256"
            },
            {
              "internalType": "uint256",
              "name": "teama",
              "type": "uint256"
            },
            {
              "internalType": "uint256",
              "name": "teamb",
              "type": "uint256"
            },
            {
              "internalType": "uint256",
              "name": "winner",
              "type": "uint256"
            }
          ],
          "internalType": "struct BracketGenerator.Match[]",
          "name": "",
          "type": "tuple[]"
        }
      ],
      "stateMutability": "view",
      "type": "function"
    },
    {
      "inputs": [
        {
          "internalType": "string",
          "name": "name",
          "type": "string"
        }
      ],
      "name": "getTournamentParticipants",
      "outputs": [
        {
          "components": [
            {
              "internalType": "uint256",
              "name": "id",
              "type": "uint256"
            },
            {
              "internalType": "string",
              "name": "name",
              "type": "string"
            }
          ],
          "internalType": "struct BracketGenerator.Team[]",
          "name": "",
          "type": "tuple[]"
        }
      ],
      "stateMutability": "view",
      "type": "function"
    },
    {
      "inputs": [
        {
          "internalType": "string",
          "name": "name",
          "type": "string"
        }
      ],
      "name": "getTournamentWinner",
      "outputs": [
        {
          "internalType": "string",
          "name": "",
          "type": "string"
        }
      ],
      "stateMutability": "view",
      "type": "function"
    },
    {
      "inputs": [
        {
          "internalType": "address",
          "name": "owner",
          "type": "address"
        }
      ],
      "name": "getTournaments",
      "outputs": [
        {
          "internalType": "string[]",
          "name": "",
          "type": "string[]"
        }
      ],
      "stateMutability": "view",
      "type": "function"
    },
    {
      "inputs": [
        {
          "internalType": "string",
          "name": "tName",
          "type": "string"
        },
        {
          "internalType": "uint256",
          "name": "matchid",
          "type": "uint256"
        },
        {
          "internalType": "uint256",
          "name": "winner",
          "type": "uint256"
        }
      ],
      "name": "matchResult",
      "outputs": [],
      "stateMutability": "nonpayable",
      "type": "function"
    },
    {
      "inputs": [
        {
          "internalType": "string",
          "name": "name",
          "type": "string"
        }
      ],
      "name": "viewTournament",
      "outputs": [
        {
          "components": [
            {
              "internalType": "address",
              "name": "creator",
              "type": "address"
            },
            {
              "components": [
                {
                  "internalType": "uint256",
                  "name": "id",
                  "type": "uint256"
                },
                {
                  "internalType": "uint256",
                  "name": "teama",
                  "type": "uint256"
                },
                {
                  "internalType": "uint256",
                  "name": "teamb",
                  "type": "uint256"
                },
                {
                  "internalType": "uint256",
                  "name": "winner",
                  "type": "uint256"
                }
              ],
              "internalType": "struct BracketGenerator.Match[]",
              "name": "matchups",
              "type": "tuple[]"
            },
            {
              "internalType": "string",
              "name": "name",
              "type": "string"
            },
            {
              "components": [
                {
                  "internalType": "uint256",
                  "name": "id",
                  "type": "uint256"
                },
                {
                  "internalType": "string",
                  "name": "name",
                  "type": "string"
                }
              ],
              "internalType": "struct BracketGenerator.Team[]",
              "name": "participants",
              "type": "tuple[]"
            },
            {
              "internalType": "uint256",
              "name": "initial",
              "type": "uint256"
            },
            {
              "internalType": "uint256",
              "name": "winner",
              "type": "uint256"
            }
          ],
          "internalType": "struct BracketGenerator.Bracket",
          "name": "",
          "type": "tuple"
        }
      ],
      "stateMutability": "view",
      "type": "function"
    },
    {
      "inputs": [
        {
          "internalType": "string",
          "name": "name",
          "type": "string"
        }
      ],
      "name": "viewTournamentName",
      "outputs": [
        {
          "internalType": "string",
          "name": "",
          "type": "string"
        }
      ],
      "stateMutability": "view",
      "type": "function"
    }
  ],
  "bytecode": "0x608060405234801561001057600080fd5b50612551806100206000396000f3fe608060405234801561001057600080fd5b50600436106100885760003560e01c8063d9cc47771161005b578063d9cc477714610139578063ec05d2ec14610169578063ef41845c14610199578063f97f81c7146101b557610088565b806329d263931461008d578063507259f1146100a9578063726ec8f0146100d9578063759b330814610109575b600080fd5b6100a760048036038101906100a2919061175c565b6101e5565b005b6100c360048036038101906100be91906117d4565b6107fb565b6040516100d0919061189c565b60405180910390f35b6100f360048036038101906100ee919061191c565b6108fd565b6040516101009190611a55565b60405180910390f35b610123600480360381019061011e91906117d4565b610a14565b6040516101309190611d39565b60405180910390f35b610153600480360381019061014e91906117d4565b610cca565b6040516101609190611dca565b60405180910390f35b610183600480360381019061017e91906117d4565b610d72565b604051610190919061189c565b60405180910390f35b6101b360048036038101906101ae9190611e73565b610e25565b005b6101cf60048036038101906101ca91906117d4565b6112c1565b6040516101dc9190611f6d565b60405180910390f35b6000806101f1836113dd565b92505b82518210156102b75760018460405161020d9190611fcb565b908152602001604051809103902060030160405180604001604052806001856102369190612011565b815260200185858151811061024e5761024d612045565b5b602002602001015181525090806001815401808255809150506001900390600052602060002090600202016000909190919091506000820151816000015560208201518160010190816102a19190612280565b50505081806102af90612352565b9250506101f4565b600291505b82518210156102d9576002826102d2919061239a565b91506102bc565b6002826102e6919061240b565b6001856040516102f69190611fcb565b908152602001604051809103902060040181905550825182610318919061243c565b90508360018560405161032b9190611fcb565b908152602001604051809103902060020190816103489190612280565b5060005b600183610359919061243c565b81101561040b576001856040516103709190611fcb565b90815260200160405180910390206001016040518060800160405280838152602001600081526020016000815260200160008152509080600181540180825580915050600190039060005260206000209060040201600090919091909150600082015181600001556020820151816001015560408201518160020155606082015181600301555050808061040390612352565b91505061034c565b600090505b60028361041d919061240b565b811015610723578181101561063c57604051806080016040528082815260200160018361044a9190612011565b8152602001600081526020016001836104639190612011565b8152506001866040516104769190611fcb565b9081526020016040518091039020600101828154811061049957610498612045565b5b90600052602060002090600402016000820151816000015560208201518160010155604082015181600201556060820151816003015590505060006001866040516104e49190611fcb565b9081526020016040518091039020600101600285610502919061240b565b60028461050f919061240b565b6105199190612011565b8154811061052a57610529612045565b5b906000526020600020906004020160010154036105be5760018161054e9190612011565b60018660405161055e9190611fcb565b908152602001604051809103902060010160028561057c919061240b565b600284610589919061240b565b6105939190612011565b815481106105a4576105a3612045565b5b906000526020600020906004020160010181905550610637565b6001816105cb9190612011565b6001866040516105db9190611fcb565b90815260200160405180910390206001016002856105f9919061240b565b600284610606919061240b565b6106109190612011565b8154811061062157610620612045565b5b9060005260206000209060040201600201819055505b610710565b604051806080016040528082815260200183600160028561065d919061239a565b6106679190612011565b610671919061243c565b81526020018360028085610685919061239a565b61068f9190612011565b610699919061243c565b815260200160008152506001866040516106b39190611fcb565b908152602001604051809103902060010182815481106106d6576106d5612045565b5b9060005260206000209060040201600082015181600001556020820151816001015560408201518160020155606082015181600301559050505b808061071b90612352565b915050610410565b6000803373ffffffffffffffffffffffffffffffffffffffff1673ffffffffffffffffffffffffffffffffffffffff168152602001908152602001600020859080600181540180825580915050600190039060005260206000200160009091909190915090816107939190612280565b50336001866040516107a59190611fcb565b908152602001604051809103902060000160006101000a81548173ffffffffffffffffffffffffffffffffffffffff021916908373ffffffffffffffffffffffffffffffffffffffff1602179055505050505050565b606060018260405161080d9190611fcb565b90815260200160405180910390206003016001808460405161082f9190611fcb565b90815260200160405180910390206005015461084b919061243c565b8154811061085c5761085b612045565b5b90600052602060002090600202016001018054610878906120a3565b80601f01602080910402602001604051908101604052809291908181526020018280546108a4906120a3565b80156108f15780601f106108c6576101008083540402835291602001916108f1565b820191906000526020600020905b8154815290600101906020018083116108d457829003601f168201915b50505050509050919050565b60606000808373ffffffffffffffffffffffffffffffffffffffff1673ffffffffffffffffffffffffffffffffffffffff168152602001908152602001600020805480602002602001604051908101604052809291908181526020016000905b82821015610a0957838290600052602060002001805461097c906120a3565b80601f01602080910402602001604051908101604052809291908181526020018280546109a8906120a3565b80156109f55780601f106109ca576101008083540402835291602001916109f5565b820191906000526020600020905b8154815290600101906020018083116109d857829003601f168201915b50505050508152602001906001019061095d565b505050509050919050565b610a1c6114d0565b600182604051610a2c9190611fcb565b90815260200160405180910390206040518060c00160405290816000820160009054906101000a900473ffffffffffffffffffffffffffffffffffffffff1673ffffffffffffffffffffffffffffffffffffffff1673ffffffffffffffffffffffffffffffffffffffff16815260200160018201805480602002602001604051908101604052809291908181526020016000905b82821015610b1a578382906000526020600020906004020160405180608001604052908160008201548152602001600182015481526020016002820154815260200160038201548152505081526020019060010190610ac0565b505050508152602001600282018054610b32906120a3565b80601f0160208091040260200160405190810160405280929190818152602001828054610b5e906120a3565b8015610bab5780601f10610b8057610100808354040283529160200191610bab565b820191906000526020600020905b815481529060010190602001808311610b8e57829003601f168201915b5050505050815260200160038201805480602002602001604051908101604052809291908181526020016000905b82821015610ca7578382906000526020600020906002020160405180604001604052908160008201548152602001600182018054610c16906120a3565b80601f0160208091040260200160405190810160405280929190818152602001828054610c42906120a3565b8015610c8f5780601f10610c6457610100808354040283529160200191610c8f565b820191906000526020600020905b815481529060010190602001808311610c7257829003601f168201915b50505050508152505081526020019060010190610bd9565b505050508152602001600482015481526020016005820154815250509050919050565b6060600182604051610cdc9190611fcb565b9081526020016040518091039020600101805480602002602001604051908101604052809291908181526020016000905b82821015610d67578382906000526020600020906004020160405180608001604052908160008201548152602001600182015481526020016002820154815260200160038201548152505081526020019060010190610d0d565b505050509050919050565b6060600182604051610d849190611fcb565b90815260200160405180910390206002018054610da0906120a3565b80601f0160208091040260200160405190810160405280929190818152602001828054610dcc906120a3565b8015610e195780601f10610dee57610100808354040283529160200191610e19565b820191906000526020600020905b815481529060010190602001808311610dfc57829003601f168201915b50505050509050919050565b3373ffffffffffffffffffffffffffffffffffffffff1660018585604051610e4e929190612495565b908152602001604051809103902060000160009054906101000a900473ffffffffffffffffffffffffffffffffffffffff1673ffffffffffffffffffffffffffffffffffffffff1614610ea057600080fd5b816001600260018787604051610eb7929190612495565b908152602001604051809103902060040154610ed3919061239a565b610edd919061243c565b11610ee757600080fd5b600060018585604051610efb929190612495565b90815260200160405180910390206001018381548110610f1e57610f1d612045565b5b90600052602060002090600402016003015414610f3a57600080fd5b600060018585604051610f4e929190612495565b90815260200160405180910390206001018381548110610f7157610f70612045565b5b90600052602060002090600402016001015414158015610fd85750600060018585604051610fa0929190612495565b90815260200160405180910390206001018381548110610fc357610fc2612045565b5b90600052602060002090600402016002015414155b610fe157600080fd5b8060018585604051610ff4929190612495565b9081526020016040518091039020600101838154811061101757611016612045565b5b906000526020600020906004020160010154148061107a57508060018585604051611043929190612495565b9081526020016040518091039020600101838154811061106657611065612045565b5b906000526020600020906004020160020154145b61108357600080fd5b8060018585604051611096929190612495565b908152602001604051809103902060010183815481106110b9576110b8612045565b5b906000526020600020906004020160030181905550600280600186866040516110e3929190612495565b9081526020016040518091039020600401546110ff919061239a565b611109919061243c565b820361113c578060018585604051611122929190612495565b9081526020016040518091039020600501819055506112bb565b600080839050600060018787604051611156929190612495565b90815260200160405180910390206004015490505b8082106111a257808361117e9190612011565b9250808261118c919061243c565b915060028161119b919061240b565b905061116b565b80836111ae9190612011565b92506000836002846111c0919061240b565b6111ca9190612011565b90506000600189896040516111e0929190612495565b9081526020016040518091039020600101828154811061120357611202612045565b5b9060005260206000209060040201600101540361126a57846001898960405161122d929190612495565b908152602001604051809103902060010182815481106112505761124f612045565b5b9060005260206000209060040201600101819055506112b6565b846001898960405161127d929190612495565b908152602001604051809103902060010182815481106112a05761129f612045565b5b9060005260206000209060040201600201819055505b505050505b50505050565b60606001826040516112d39190611fcb565b9081526020016040518091039020600301805480602002602001604051908101604052809291908181526020016000905b828210156113d2578382906000526020600020906002020160405180604001604052908160008201548152602001600182018054611341906120a3565b80601f016020809104026020016040519081016040528092919081815260200182805461136d906120a3565b80156113ba5780601f1061138f576101008083540402835291602001916113ba565b820191906000526020600020905b81548152906001019060200180831161139d57829003601f168201915b50505050508152505081526020019060010190611304565b505050509050919050565b606060005b82518110156114c75760008184516113fa919061243c565b4260405160200161140b91906124cf565b6040516020818303038152906040528051906020012060001c61142e91906124ea565b826114399190612011565b905060008482815181106114505761144f612045565b5b6020026020010151905084838151811061146d5761146c612045565b5b602002602001015185838151811061148857611487612045565b5b6020026020010181905250808584815181106114a7576114a6612045565b5b6020026020010181905250505080806114bf90612352565b9150506113e2565b50819050919050565b6040518060c00160405280600073ffffffffffffffffffffffffffffffffffffffff16815260200160608152602001606081526020016060815260200160008152602001600081525090565b6000604051905090565b600080fd5b600080fd5b600080fd5b600080fd5b6000601f19601f8301169050919050565b7f4e487b7100000000000000000000000000000000000000000000000000000000600052604160045260246000fd5b6115838261153a565b810181811067ffffffffffffffff821117156115a2576115a161154b565b5b80604052505050565b60006115b561151c565b90506115c1828261157a565b919050565b600067ffffffffffffffff8211156115e1576115e061154b565b5b6115ea8261153a565b9050602081019050919050565b82818337600083830152505050565b6000611619611614846115c6565b6115ab565b90508281526020810184848401111561163557611634611535565b5b6116408482856115f7565b509392505050565b600082601f83011261165d5761165c611530565b5b813561166d848260208601611606565b91505092915050565b600067ffffffffffffffff8211156116915761169061154b565b5b602082029050602081019050919050565b600080fd5b60006116ba6116b584611676565b6115ab565b905080838252602082019050602084028301858111156116dd576116dc6116a2565b5b835b8181101561172457803567ffffffffffffffff81111561170257611701611530565b5b80860161170f8982611648565b855260208501945050506020810190506116df565b5050509392505050565b600082601f83011261174357611742611530565b5b81356117538482602086016116a7565b91505092915050565b6000806040838503121561177357611772611526565b5b600083013567ffffffffffffffff8111156117915761179061152b565b5b61179d85828601611648565b925050602083013567ffffffffffffffff8111156117be576117bd61152b565b5b6117ca8582860161172e565b9150509250929050565b6000602082840312156117ea576117e9611526565b5b600082013567ffffffffffffffff8111156118085761180761152b565b5b61181484828501611648565b91505092915050565b600081519050919050565b600082825260208201905092915050565b60005b8381101561185757808201518184015260208101905061183c565b60008484015250505050565b600061186e8261181d565b6118788185611828565b9350611888818560208601611839565b6118918161153a565b840191505092915050565b600060208201905081810360008301526118b68184611863565b905092915050565b600073ffffffffffffffffffffffffffffffffffffffff82169050919050565b60006118e9826118be565b9050919050565b6118f9816118de565b811461190457600080fd5b50565b600081359050611916816118f0565b92915050565b60006020828403121561193257611931611526565b5b600061194084828501611907565b91505092915050565b600081519050919050565b600082825260208201905092915050565b6000819050602082019050919050565b600082825260208201905092915050565b60006119918261181d565b61199b8185611975565b93506119ab818560208601611839565b6119b48161153a565b840191505092915050565b60006119cb8383611986565b905092915050565b6000602082019050919050565b60006119eb82611949565b6119f58185611954565b935083602082028501611a0785611965565b8060005b85811015611a435784840389528151611a2485826119bf565b9450611a2f836119d3565b925060208a01995050600181019050611a0b565b50829750879550505050505092915050565b60006020820190508181036000830152611a6f81846119e0565b905092915050565b611a80816118de565b82525050565b600081519050919050565b600082825260208201905092915050565b6000819050602082019050919050565b6000819050919050565b611ac581611ab2565b82525050565b608082016000820151611ae16000850182611abc565b506020820151611af46020850182611abc565b506040820151611b076040850182611abc565b506060820151611b1a6060850182611abc565b50505050565b6000611b2c8383611acb565b60808301905092915050565b6000602082019050919050565b6000611b5082611a86565b611b5a8185611a91565b9350611b6583611aa2565b8060005b83811015611b96578151611b7d8882611b20565b9750611b8883611b38565b925050600181019050611b69565b5085935050505092915050565b600081519050919050565b600082825260208201905092915050565b6000819050602082019050919050565b6000604083016000830151611be76000860182611abc565b5060208301518482036020860152611bff8282611986565b9150508091505092915050565b6000611c188383611bcf565b905092915050565b6000602082019050919050565b6000611c3882611ba3565b611c428185611bae565b935083602082028501611c5485611bbf565b8060005b85811015611c905784840389528151611c718582611c0c565b9450611c7c83611c20565b925060208a01995050600181019050611c58565b50829750879550505050505092915050565b600060c083016000830151611cba6000860182611a77565b5060208301518482036020860152611cd28282611b45565b91505060408301518482036040860152611cec8282611986565b91505060608301518482036060860152611d068282611c2d565b9150506080830151611d1b6080860182611abc565b5060a0830151611d2e60a0860182611abc565b508091505092915050565b60006020820190508181036000830152611d538184611ca2565b905092915050565b600082825260208201905092915050565b6000611d7782611a86565b611d818185611d5b565b9350611d8c83611aa2565b8060005b83811015611dbd578151611da48882611b20565b9750611daf83611b38565b925050600181019050611d90565b5085935050505092915050565b60006020820190508181036000830152611de48184611d6c565b905092915050565b600080fd5b60008083601f840112611e0757611e06611530565b5b8235905067ffffffffffffffff811115611e2457611e23611dec565b5b602083019150836001820283011115611e4057611e3f6116a2565b5b9250929050565b611e5081611ab2565b8114611e5b57600080fd5b50565b600081359050611e6d81611e47565b92915050565b60008060008060608587031215611e8d57611e8c611526565b5b600085013567ffffffffffffffff811115611eab57611eaa61152b565b5b611eb787828801611df1565b94509450506020611eca87828801611e5e565b9250506040611edb87828801611e5e565b91505092959194509250565b600082825260208201905092915050565b6000611f0382611ba3565b611f0d8185611ee7565b935083602082028501611f1f85611bbf565b8060005b85811015611f5b5784840389528151611f3c8582611c0c565b9450611f4783611c20565b925060208a01995050600181019050611f23565b50829750879550505050505092915050565b60006020820190508181036000830152611f878184611ef8565b905092915050565b600081905092915050565b6000611fa58261181d565b611faf8185611f8f565b9350611fbf818560208601611839565b80840191505092915050565b6000611fd78284611f9a565b915081905092915050565b7f4e487b7100000000000000000000000000000000000000000000000000000000600052601160045260246000fd5b600061201c82611ab2565b915061202783611ab2565b925082820190508082111561203f5761203e611fe2565b5b92915050565b7f4e487b7100000000000000000000000000000000000000000000000000000000600052603260045260246000fd5b7f4e487b7100000000000000000000000000000000000000000000000000000000600052602260045260246000fd5b600060028204905060018216806120bb57607f821691505b6020821081036120ce576120cd612074565b5b50919050565b60008190508160005260206000209050919050565b60006020601f8301049050919050565b600082821b905092915050565b6000600883026121367fffffffffffffffffffffffffffffffffffffffffffffffffffffffffffffffff826120f9565b61214086836120f9565b95508019841693508086168417925050509392505050565b6000819050919050565b600061217d61217861217384611ab2565b612158565b611ab2565b9050919050565b6000819050919050565b61219783612162565b6121ab6121a382612184565b848454612106565b825550505050565b600090565b6121c06121b3565b6121cb81848461218e565b505050565b5b818110156121ef576121e46000826121b8565b6001810190506121d1565b5050565b601f82111561223457612205816120d4565b61220e846120e9565b8101602085101561221d578190505b612231612229856120e9565b8301826121d0565b50505b505050565b600082821c905092915050565b600061225760001984600802612239565b1980831691505092915050565b60006122708383612246565b9150826002028217905092915050565b6122898261181d565b67ffffffffffffffff8111156122a2576122a161154b565b5b6122ac82546120a3565b6122b78282856121f3565b600060209050601f8311600181146122ea57600084156122d8578287015190505b6122e28582612264565b86555061234a565b601f1984166122f8866120d4565b60005b82811015612320578489015182556001820191506020850194506020810190506122fb565b8683101561233d5784890151612339601f891682612246565b8355505b6001600288020188555050505b505050505050565b600061235d82611ab2565b91507fffffffffffffffffffffffffffffffffffffffffffffffffffffffffffffffff820361238f5761238e611fe2565b5b600182019050919050565b60006123a582611ab2565b91506123b083611ab2565b92508282026123be81611ab2565b915082820484148315176123d5576123d4611fe2565b5b5092915050565b7f4e487b7100000000000000000000000000000000000000000000000000000000600052601260045260246000fd5b600061241682611ab2565b915061242183611ab2565b925082612431576124306123dc565b5b828204905092915050565b600061244782611ab2565b915061245283611ab2565b925082820390508181111561246a57612469611fe2565b5b92915050565b600061247c8385611f8f565b93506124898385846115f7565b82840190509392505050565b60006124a2828486612470565b91508190509392505050565b6000819050919050565b6124c96124c482611ab2565b6124ae565b82525050565b60006124db82846124b8565b60208201915081905092915050565b60006124f582611ab2565b915061250083611ab2565b9250826125105761250f6123dc565b5b82820690509291505056fea2646970667358221220ac56ee91ba02f161a2077f120997096827e40a826780dfa1ff8d77d8ab4ec76164736f6c63430008110033",
  "linkReferences": {},
  "deployedLinkReferences": {}
}