{
  "_format": "hh-sol-artifact-1",
  "contractName": "BracketGenerator",
  "sourceName": "contracts/BracketGenerator.sol",
  "abi": [
    {
      "inputs": [
        {
          "internalType": "string",
          "name": "name",
          "type": "string"
        },
        {
          "internalType": "string[]",
          "name": "teams",
          "type": "string[]"
        }
      ],
      "name": "createTournament",
      "outputs": [],
      "stateMutability": "nonpayable",
      "type": "function"
    },
    {
      "inputs": [
        {
          "internalType": "uint256",
          "name": "id",
          "type": "uint256"
        },
        {
          "internalType": "address",
          "name": "owner",
          "type": "address"
        },
        {
          "internalType": "string",
          "name": "tname",
          "type": "string"
        }
      ],
      "name": "getMatch",
      "outputs": [
        {
          "components": [
            {
              "internalType": "uint256",
              "name": "teama",
              "type": "uint256"
            },
            {
              "internalType": "uint256",
              "name": "teamb",
              "type": "uint256"
            },
            {
              "internalType": "uint256",
              "name": "winner",
              "type": "uint256"
            }
          ],
          "internalType": "struct BracketGenerator.Match",
          "name": "",
          "type": "tuple"
        }
      ],
      "stateMutability": "view",
      "type": "function"
    },
    {
      "inputs": [
        {
          "internalType": "string",
          "name": "name",
          "type": "string"
        },
        {
          "internalType": "address",
          "name": "owner",
          "type": "address"
        }
      ],
      "name": "getTournamentMatchups",
      "outputs": [
        {
          "components": [
            {
              "internalType": "uint256",
              "name": "teama",
              "type": "uint256"
            },
            {
              "internalType": "uint256",
              "name": "teamb",
              "type": "uint256"
            },
            {
              "internalType": "uint256",
              "name": "winner",
              "type": "uint256"
            }
          ],
          "internalType": "struct BracketGenerator.Match[]",
          "name": "",
          "type": "tuple[]"
        }
      ],
      "stateMutability": "view",
      "type": "function"
    },
    {
      "inputs": [
        {
          "internalType": "string",
          "name": "name",
          "type": "string"
        },
        {
          "internalType": "address",
          "name": "owner",
          "type": "address"
        }
      ],
      "name": "getTournamentParticipants",
      "outputs": [
        {
          "components": [
            {
              "internalType": "uint256",
              "name": "id",
              "type": "uint256"
            },
            {
              "internalType": "string",
              "name": "name",
              "type": "string"
            }
          ],
          "internalType": "struct BracketGenerator.Team[]",
          "name": "",
          "type": "tuple[]"
        }
      ],
      "stateMutability": "view",
      "type": "function"
    },
    {
      "inputs": [
        {
          "internalType": "string",
          "name": "name",
          "type": "string"
        },
        {
          "internalType": "address",
          "name": "owner",
          "type": "address"
        }
      ],
      "name": "getTournamentWinner",
      "outputs": [
        {
          "internalType": "string",
          "name": "",
          "type": "string"
        }
      ],
      "stateMutability": "view",
      "type": "function"
    },
    {
      "inputs": [
        {
          "internalType": "address",
          "name": "owner",
          "type": "address"
        }
      ],
      "name": "getTournaments",
      "outputs": [
        {
          "internalType": "string[]",
          "name": "",
          "type": "string[]"
        }
      ],
      "stateMutability": "view",
      "type": "function"
    },
    {
      "inputs": [
        {
          "internalType": "string",
          "name": "tName",
          "type": "string"
        },
        {
          "internalType": "uint256",
          "name": "matchid",
          "type": "uint256"
        },
        {
          "internalType": "uint256",
          "name": "winner",
          "type": "uint256"
        }
      ],
      "name": "matchResult",
      "outputs": [],
      "stateMutability": "nonpayable",
      "type": "function"
    }
  ],
  "bytecode": "0x608060405234801561001057600080fd5b50612218806100206000396000f3fe608060405234801561001057600080fd5b506004361061007d5760003560e01c80638cdc68431161005b5780638cdc6843146100fe578063abc75caa1461012e578063d76bf9881461015e578063ef41845c1461018e5761007d565b80631d7ba1881461008257806329d26393146100b2578063726ec8f0146100ce575b600080fd5b61009c600480360381019061009791906114f9565b6101aa565b6040516100a9919061165f565b60405180910390f35b6100cc60048036038101906100c79190611767565b610458565b005b6100e860048036038101906100e391906117df565b610871565b6040516100f5919061194d565b60405180910390f35b610118600480360381019061011391906114f9565b610989565b6040516101259190611a6e565b60405180910390f35b610148600480360381019061014391906114f9565b610ae2565b6040516101559190611ada565b60405180910390f35b61017860048036038101906101739190611b28565b610c5e565b6040516101859190611bd9565b60405180910390f35b6101a860048036038101906101a39190611c4f565b610d06565b005b60606000600160026000808673ffffffffffffffffffffffffffffffffffffffff1673ffffffffffffffffffffffffffffffffffffffff168152602001908152602001600020866040516101fe9190611cff565b90815260200160405180910390206003015461021a9190611d45565b6102249190611d87565b67ffffffffffffffff81111561023d5761023c611370565b5b60405190808252806020026020018201604052801561027657816020015b610263611320565b81526020019060019003908161025b5790505b50905060005b600160026000808773ffffffffffffffffffffffffffffffffffffffff1673ffffffffffffffffffffffffffffffffffffffff168152602001908152602001600020876040516102cc9190611cff565b9081526020016040518091039020600301546102e89190611d45565b6102f29190611d87565b81101561044d57600060405180606001604052806000815260200160008152602001600081525090506000808673ffffffffffffffffffffffffffffffffffffffff1673ffffffffffffffffffffffffffffffffffffffff168152602001908152602001600020866040516103679190611cff565b90815260200160405180910390206006015482101561041a576000808673ffffffffffffffffffffffffffffffffffffffff1673ffffffffffffffffffffffffffffffffffffffff168152602001908152602001600020866040516103cc9190611cff565b90815260200160405180910390206002016000838152602001908152602001600020604051806060016040529081600082015481526020016001820154815260200160028201548152505090505b8083838151811061042e5761042d611dbb565b5b602002602001018190525050808061044590611dea565b91505061027c565b508091505092915050565b60008060003373ffffffffffffffffffffffffffffffffffffffff1673ffffffffffffffffffffffffffffffffffffffff168152602001908152602001600020836040516104a69190611cff565b90815260200160405180910390209050600080600291505b83518210156104db576002826104d49190611d45565b91506104be565b6002826104e89190611e61565b83600301819055508351826104fd9190611d87565b905084836000019081610510919061209e565b508083600301546105219190612170565b836006018190555060005b84518110156107f7578360010160405180604001604052806001846105519190612170565b815260200187848151811061056957610568611dbb565b5b602002602001015181525090806001815401808255809150506001900390600052602060002090600202016000909190919091506000820151816000015560208201518160010190816105bc919061209e565b50505081811015610705576001816105d49190612170565b8460020160008381526020019081526020016000206000018190555060008460020160008381526020019081526020016000206001018190555060018161061b9190612170565b84600201600083815260200190815260200160002060020181905550600084600201600086600301546002856106519190611e61565b61065b9190612170565b815260200190815260200160002060000154036106bb5760018161067f9190612170565b84600201600086600301546002856106979190611e61565b6106a19190612170565b815260200190815260200160002060000181905550610700565b6001816106c89190612170565b84600201600086600301546002856106e09190611e61565b6106ea9190612170565b8152602001908152602001600020600101819055505b6107e4565b6000846002016000846002868661071c9190611d87565b6107269190611e61565b6107309190612170565b81526020019081526020016000206000015403610797576001816107549190612170565b84600201600084600286866107699190611d87565b6107739190611e61565b61077d9190612170565b8152602001908152602001600020600001819055506107e3565b6001816107a49190612170565b84600201600084600286866107b99190611d87565b6107c39190611e61565b6107cd9190612170565b8152602001908152602001600020600101819055505b5b80806107ef90611dea565b91505061052c565b50600160003373ffffffffffffffffffffffffffffffffffffffff1673ffffffffffffffffffffffffffffffffffffffff16815260200190815260200160002085908060018154018082558091505060019003906000526020600020016000909190919091509081610869919061209e565b505050505050565b6060600160008373ffffffffffffffffffffffffffffffffffffffff1673ffffffffffffffffffffffffffffffffffffffff168152602001908152602001600020805480602002602001604051908101604052809291908181526020016000905b8282101561097e5783829060005260206000200180546108f190611ec1565b80601f016020809104026020016040519081016040528092919081815260200182805461091d90611ec1565b801561096a5780601f1061093f5761010080835404028352916020019161096a565b820191906000526020600020905b81548152906001019060200180831161094d57829003601f168201915b5050505050815260200190600101906108d2565b505050509050919050565b60606000808373ffffffffffffffffffffffffffffffffffffffff1673ffffffffffffffffffffffffffffffffffffffff168152602001908152602001600020836040516109d79190611cff565b9081526020016040518091039020600101805480602002602001604051908101604052809291908181526020016000905b82821015610ad6578382906000526020600020906002020160405180604001604052908160008201548152602001600182018054610a4590611ec1565b80601f0160208091040260200160405190810160405280929190818152602001828054610a7190611ec1565b8015610abe5780601f10610a9357610100808354040283529160200191610abe565b820191906000526020600020905b815481529060010190602001808311610aa157829003601f168201915b50505050508152505081526020019060010190610a08565b50505050905092915050565b60606000808373ffffffffffffffffffffffffffffffffffffffff1673ffffffffffffffffffffffffffffffffffffffff16815260200190815260200160002083604051610b309190611cff565b908152602001604051809103902060010160016000808573ffffffffffffffffffffffffffffffffffffffff1673ffffffffffffffffffffffffffffffffffffffff16815260200190815260200160002085604051610b8f9190611cff565b908152602001604051809103902060050154610bab9190611d87565b81548110610bbc57610bbb611dbb565b5b90600052602060002090600202016001018054610bd890611ec1565b80601f0160208091040260200160405190810160405280929190818152602001828054610c0490611ec1565b8015610c515780601f10610c2657610100808354040283529160200191610c51565b820191906000526020600020905b815481529060010190602001808311610c3457829003601f168201915b5050505050905092915050565b610c66611320565b6000808473ffffffffffffffffffffffffffffffffffffffff1673ffffffffffffffffffffffffffffffffffffffff16815260200190815260200160002082604051610cb29190611cff565b90815260200160405180910390206002016000858152602001908152602001600020604051806060016040529081600082015481526020016001820154815260200160028201548152505090509392505050565b81600160026000803373ffffffffffffffffffffffffffffffffffffffff1673ffffffffffffffffffffffffffffffffffffffff1681526020019081526020016000208787604051610d599291906121c9565b908152602001604051809103902060030154610d759190611d45565b610d7f9190611d87565b11610d8957600080fd5b60008060003373ffffffffffffffffffffffffffffffffffffffff1673ffffffffffffffffffffffffffffffffffffffff1681526020019081526020016000208585604051610dd99291906121c9565b908152602001604051809103902060020160008481526020019081526020016000206002015414610e0957600080fd5b6000803373ffffffffffffffffffffffffffffffffffffffff1673ffffffffffffffffffffffffffffffffffffffff1681526020019081526020016000208484604051610e579291906121c9565b9081526020016040518091039020600201600083815260200190815260200160002060000154811480610efc57506000803373ffffffffffffffffffffffffffffffffffffffff1673ffffffffffffffffffffffffffffffffffffffff1681526020019081526020016000208484604051610ed39291906121c9565b908152602001604051809103902060020160008381526020019081526020016000206001015481145b610f0557600080fd5b806000803373ffffffffffffffffffffffffffffffffffffffff1673ffffffffffffffffffffffffffffffffffffffff1681526020019081526020016000208585604051610f549291906121c9565b90815260200160405180910390206002016000848152602001908152602001600020600201819055506002806000803373ffffffffffffffffffffffffffffffffffffffff1673ffffffffffffffffffffffffffffffffffffffff1681526020019081526020016000208686604051610fce9291906121c9565b908152602001604051809103902060030154610fea9190611d45565b610ff49190611d87565b82146112b55760008083905060008060003373ffffffffffffffffffffffffffffffffffffffff1673ffffffffffffffffffffffffffffffffffffffff16815260200190815260200160002087876040516110509291906121c9565b90815260200160405180910390206003015490505b80821061109c5780836110789190612170565b925080826110869190611d87565b91506002816110959190611e61565b9050611065565b80836110a89190612170565b92506000836002846110ba9190611e61565b6110c49190612170565b905060008060003373ffffffffffffffffffffffffffffffffffffffff1673ffffffffffffffffffffffffffffffffffffffff16815260200190815260200160002089896040516111169291906121c9565b908152602001604051809103902060020160008381526020019081526020016000206000015403611233576000803373ffffffffffffffffffffffffffffffffffffffff1673ffffffffffffffffffffffffffffffffffffffff168152602001908152602001600020888860405161118f9291906121c9565b908152602001604051809103902060060160008154809291906111b190611dea565b9190505550846000803373ffffffffffffffffffffffffffffffffffffffff1673ffffffffffffffffffffffffffffffffffffffff16815260200190815260200160002089896040516112059291906121c9565b90815260200160405180910390206002016000838152602001908152602001600020600001819055506112ac565b846000803373ffffffffffffffffffffffffffffffffffffffff1673ffffffffffffffffffffffffffffffffffffffff16815260200190815260200160002089896040516112829291906121c9565b90815260200160405180910390206002016000838152602001908152602001600020600101819055505b5050505061131a565b806000803373ffffffffffffffffffffffffffffffffffffffff1673ffffffffffffffffffffffffffffffffffffffff16815260200190815260200160002085856040516113049291906121c9565b9081526020016040518091039020600501819055505b50505050565b60405180606001604052806000815260200160008152602001600081525090565b6000604051905090565b600080fd5b600080fd5b600080fd5b600080fd5b6000601f19601f8301169050919050565b7f4e487b7100000000000000000000000000000000000000000000000000000000600052604160045260246000fd5b6113a88261135f565b810181811067ffffffffffffffff821117156113c7576113c6611370565b5b80604052505050565b60006113da611341565b90506113e6828261139f565b919050565b600067ffffffffffffffff82111561140657611405611370565b5b61140f8261135f565b9050602081019050919050565b82818337600083830152505050565b600061143e611439846113eb565b6113d0565b90508281526020810184848401111561145a5761145961135a565b5b61146584828561141c565b509392505050565b600082601f83011261148257611481611355565b5b813561149284826020860161142b565b91505092915050565b600073ffffffffffffffffffffffffffffffffffffffff82169050919050565b60006114c68261149b565b9050919050565b6114d6816114bb565b81146114e157600080fd5b50565b6000813590506114f3816114cd565b92915050565b600080604083850312156115105761150f61134b565b5b600083013567ffffffffffffffff81111561152e5761152d611350565b5b61153a8582860161146d565b925050602061154b858286016114e4565b9150509250929050565b600081519050919050565b600082825260208201905092915050565b6000819050602082019050919050565b6000819050919050565b61159481611581565b82525050565b6060820160008201516115b0600085018261158b565b5060208201516115c3602085018261158b565b5060408201516115d6604085018261158b565b50505050565b60006115e8838361159a565b60608301905092915050565b6000602082019050919050565b600061160c82611555565b6116168185611560565b935061162183611571565b8060005b8381101561165257815161163988826115dc565b9750611644836115f4565b925050600181019050611625565b5085935050505092915050565b600060208201905081810360008301526116798184611601565b905092915050565b600067ffffffffffffffff82111561169c5761169b611370565b5b602082029050602081019050919050565b600080fd5b60006116c56116c084611681565b6113d0565b905080838252602082019050602084028301858111156116e8576116e76116ad565b5b835b8181101561172f57803567ffffffffffffffff81111561170d5761170c611355565b5b80860161171a898261146d565b855260208501945050506020810190506116ea565b5050509392505050565b600082601f83011261174e5761174d611355565b5b813561175e8482602086016116b2565b91505092915050565b6000806040838503121561177e5761177d61134b565b5b600083013567ffffffffffffffff81111561179c5761179b611350565b5b6117a88582860161146d565b925050602083013567ffffffffffffffff8111156117c9576117c8611350565b5b6117d585828601611739565b9150509250929050565b6000602082840312156117f5576117f461134b565b5b6000611803848285016114e4565b91505092915050565b600081519050919050565b600082825260208201905092915050565b6000819050602082019050919050565b600081519050919050565b600082825260208201905092915050565b60005b83811015611872578082015181840152602081019050611857565b60008484015250505050565b600061188982611838565b6118938185611843565b93506118a3818560208601611854565b6118ac8161135f565b840191505092915050565b60006118c3838361187e565b905092915050565b6000602082019050919050565b60006118e38261180c565b6118ed8185611817565b9350836020820285016118ff85611828565b8060005b8581101561193b578484038952815161191c85826118b7565b9450611927836118cb565b925060208a01995050600181019050611903565b50829750879550505050505092915050565b6000602082019050818103600083015261196781846118d8565b905092915050565b600081519050919050565b600082825260208201905092915050565b6000819050602082019050919050565b60006040830160008301516119b3600086018261158b565b50602083015184820360208601526119cb828261187e565b9150508091505092915050565b60006119e4838361199b565b905092915050565b6000602082019050919050565b6000611a048261196f565b611a0e818561197a565b935083602082028501611a208561198b565b8060005b85811015611a5c5784840389528151611a3d85826119d8565b9450611a48836119ec565b925060208a01995050600181019050611a24565b50829750879550505050505092915050565b60006020820190508181036000830152611a8881846119f9565b905092915050565b600082825260208201905092915050565b6000611aac82611838565b611ab68185611a90565b9350611ac6818560208601611854565b611acf8161135f565b840191505092915050565b60006020820190508181036000830152611af48184611aa1565b905092915050565b611b0581611581565b8114611b1057600080fd5b50565b600081359050611b2281611afc565b92915050565b600080600060608486031215611b4157611b4061134b565b5b6000611b4f86828701611b13565b9350506020611b60868287016114e4565b925050604084013567ffffffffffffffff811115611b8157611b80611350565b5b611b8d8682870161146d565b9150509250925092565b606082016000820151611bad600085018261158b565b506020820151611bc0602085018261158b565b506040820151611bd3604085018261158b565b50505050565b6000606082019050611bee6000830184611b97565b92915050565b600080fd5b60008083601f840112611c0f57611c0e611355565b5b8235905067ffffffffffffffff811115611c2c57611c2b611bf4565b5b602083019150836001820283011115611c4857611c476116ad565b5b9250929050565b60008060008060608587031215611c6957611c6861134b565b5b600085013567ffffffffffffffff811115611c8757611c86611350565b5b611c9387828801611bf9565b94509450506020611ca687828801611b13565b9250506040611cb787828801611b13565b91505092959194509250565b600081905092915050565b6000611cd982611838565b611ce38185611cc3565b9350611cf3818560208601611854565b80840191505092915050565b6000611d0b8284611cce565b915081905092915050565b7f4e487b7100000000000000000000000000000000000000000000000000000000600052601160045260246000fd5b6000611d5082611581565b9150611d5b83611581565b9250828202611d6981611581565b91508282048414831517611d8057611d7f611d16565b5b5092915050565b6000611d9282611581565b9150611d9d83611581565b9250828203905081811115611db557611db4611d16565b5b92915050565b7f4e487b7100000000000000000000000000000000000000000000000000000000600052603260045260246000fd5b6000611df582611581565b91507fffffffffffffffffffffffffffffffffffffffffffffffffffffffffffffffff8203611e2757611e26611d16565b5b600182019050919050565b7f4e487b7100000000000000000000000000000000000000000000000000000000600052601260045260246000fd5b6000611e6c82611581565b9150611e7783611581565b925082611e8757611e86611e32565b5b828204905092915050565b7f4e487b7100000000000000000000000000000000000000000000000000000000600052602260045260246000fd5b60006002820490506001821680611ed957607f821691505b602082108103611eec57611eeb611e92565b5b50919050565b60008190508160005260206000209050919050565b60006020601f8301049050919050565b600082821b905092915050565b600060088302611f547fffffffffffffffffffffffffffffffffffffffffffffffffffffffffffffffff82611f17565b611f5e8683611f17565b95508019841693508086168417925050509392505050565b6000819050919050565b6000611f9b611f96611f9184611581565b611f76565b611581565b9050919050565b6000819050919050565b611fb583611f80565b611fc9611fc182611fa2565b848454611f24565b825550505050565b600090565b611fde611fd1565b611fe9818484611fac565b505050565b5b8181101561200d57612002600082611fd6565b600181019050611fef565b5050565b601f8211156120525761202381611ef2565b61202c84611f07565b8101602085101561203b578190505b61204f61204785611f07565b830182611fee565b50505b505050565b600082821c905092915050565b600061207560001984600802612057565b1980831691505092915050565b600061208e8383612064565b9150826002028217905092915050565b6120a782611838565b67ffffffffffffffff8111156120c0576120bf611370565b5b6120ca8254611ec1565b6120d5828285612011565b600060209050601f83116001811461210857600084156120f6578287015190505b6121008582612082565b865550612168565b601f19841661211686611ef2565b60005b8281101561213e57848901518255600182019150602085019450602081019050612119565b8683101561215b5784890151612157601f891682612064565b8355505b6001600288020188555050505b505050505050565b600061217b82611581565b915061218683611581565b925082820190508082111561219e5761219d611d16565b5b92915050565b60006121b08385611cc3565b93506121bd83858461141c565b82840190509392505050565b60006121d68284866121a4565b9150819050939250505056fea264697066735822122036ef212edd65fd1647ce1ca00971f93f7c766f0ffc5736a334ef49c5cefde45964736f6c63430008110033",
  "linkReferences": {},
  "deployedLinkReferences": {}
}